:100000000C9446000C9465000C9465000C946500FB
:100010000C9465000C9465000C9465000C946500CC
:100020000C9465000C9465000C9465000C946500BC
:100030000C9465000C94E0010C9465000C94650030
:100040000C9465000C9465000C9465000C9465009C
:100050000C9465000C9465000C9465000C9465008C
:100060000C9465000C9465000C9465000C9465007C
:100070000C9465000C9465000C9465000C9465006C
:100080000C9465000C9465000C94650011241FBE4F
:10009000CFEFD0E4DEBFCDBF11E0A0E0B1E0E0EBF8
:1000A000FEE000E00BBF02C007900D92A632B10740
:1000B000D9F721E0A6E2B1E001C01D92A834B20751
:1000C000E1F70E943E050C9411070C940000CF93B9
:1000D000DF93CDB7DEB781E00E948E000000DF9194
:1000E000CF910895CF93DF93CDB7DEB784E690E04C
:1000F0000E94330188E30E948E0086E00E948E00F9
:100100008FE00E948E0081E00E948E008AE090E0E5
:100110000E9433010000DF91CF910895CF93DF93C8
:100120000F92CDB7DEB789838BE290E0FC0120818E
:100130008BE290E02F7BFC01208382E290E029811A
:10014000FC0120838BE290E0FC0120818BE290E0B7
:100150002068FC01208300008BE290E0FC012081FC
:100160008BE290E02F77FC01208382E090E00E94F8
:10017000330100000F90DF91CF910895CF93DF936B
:100180000F92CDB7DEB789838BE290E0FC0120812E
:100190008BE290E02064FC01208382E290E02981E0
:1001A000FC0120838BE290E0FC0120818BE290E057
:1001B0002068FC01208300008BE290E0FC0120819C
:1001C0008BE290E02F77FC01208381E090E00E9499
:1001D000330100000F90DF91CF910895CF93DF930B
:1001E00000D000D0CDB7DEB78A837C836B830E94BA
:1001F00067008A81898311C0898191E0980F998372
:100200000E941C018B819C819C012F5F3F4F3C838E
:100210002B83FC0180810E94BE008B819C81FC01AC
:100220008081882349F7000000000F900F900F9005
:100230000F90DF91CF910895CF93DF930F92CDB7B9
:10024000DEB789838981813128F4898181580E94B0
:100250008E0004C0898181550E948E0000000F909D
:10026000DF91CF910895CF93DF9300D000D000D0DD
:10027000CDB7DEB79E838D831A82198213C01C828C
:100280001B8206C000008B819C8101969C838B831E
:100290008B819C8187309340ACF389819A81019650
:1002A0009A83898329813A818D819E812817390714
:1002B00034F30000000026960FB6F894DEBF0FBEA0
:1002C000CDBFDF91CF910895CF93DF9300D000D0C1
:1002D000CDB7DEB769837A838B839C8389819A81CA
:1002E000AB81BC818093000190930101A093020136
:1002F000B09303018091000190910101A09102014E
:10030000B09103018093270190932801A0932901C4
:10031000B0932A0100000F900F900F900F90DF9183
:10032000CF910895CF93DF93CDB7DEB781E890E00A
:100330002BE0FC01208388E890E02DE730E0FC0111
:10034000318320838FE690E022E0FC01208384E863
:1003500090E0FC01118210828091000190910101D6
:10036000A0910201B091030180932701909328018D
:10037000A0932901B0932A018FE590E0FC01208130
:100380008FE590E02068FC0120830000DF91CF9191
:100390000895CF93DF93CDB7DEB781E890E0FC01FD
:1003A00010820000DF91CF910895CF93DF93CDB7F6
:1003B000DEB781E0809326010000DF91CF910895A0
:1003C0001F920F920FB60F9211240BB60F922F931C
:1003D0003F934F935F936F937F938F939F93AF93CD
:1003E000BF93EF93FF93CF93DF93CDB7DEB78091A9
:1003F000270190912801A0912901B0912A0101972C
:10040000A109B1098093270190932801A0932901A4
:10041000B0932A018091270190912801A091290190
:10042000B0912A01892B8A2B8B2B91F40E94D50144
:100430008091000190910101A0910201B09103010E
:100440008093270190932801A0932901B0932A015A
:100450000000DF91CF91FF91EF91BF91AF919F91FC
:100460008F917F916F915F914F913F912F910F905D
:100470000BBE0F900FBE0F901F901895CF93DF9378
:1004800000D00F92CDB7DEB789836A834B838B810F
:10049000882371F08A81282F30E081E090E002C04B
:1004A000880F991F2A95E2F7982F8981892B0EC012
:1004B0008A81282F30E081E090E002C0880F991FE8
:1004C0002A95E2F7982F9095898189230F900F90B4
:1004D0000F90DF91CF910895CF93DF9300D0CDB7E8
:1004E000DEB789836A838A81282F30E081E090E03B
:1004F00002C0880F991F2A95E2F7982F89818923D6
:100500000F900F90DF91CF9108950F931F93CF938A
:10051000DF93CDB7DEB708E210E040E064E08FEF94
:100520000E943E02F8018083000086E290E0FC0118
:100530008081809560E00E946C02882311F081E345
:10054000D3C086E290E0FC018081809561E00E944A
:100550006C02882311F084E3C7C086E290E0FC01BE
:100560008081809562E00E946C02882311F087E30D
:10057000BBC086E290E0FC018081809563E00E9430
:100580006C02882311F08AE2AFC008E210E040E07C
:1005900065E08FEF0E943E02F8018083000086E252
:1005A00090E0FC018081809560E00E946C028823CD
:1005B00011F082E399C086E290E0FC018081809591
:1005C00061E00E946C02882311F085E38DC086E211
:1005D00090E0FC018081809562E00E946C0288239B
:1005E00011F088E381C086E290E0FC018081809573
:1005F00063E00E946C02882311F080E375C008E27A
:1006000010E040E066E08FEF0E943E02F801808338
:10061000000086E290E0FC018081809560E00E940D
:100620006C02882311F083E35FC086E290E0FC0156
:100630008081809561E00E946C02882311F086E33E
:1006400053C086E290E0FC018081809562E00E94C8
:100650006C02882311F089E347C086E290E0FC0138
:100660008081809563E00E946C02882311F083E210
:100670003BC008E210E040E067E08FEF0E943E02DE
:10068000F8018083000086E290E0FC018081809583
:1006900060E00E946C02882311F081E425C086E2AC
:1006A00090E0FC018081809561E00E946C028823CB
:1006B00011F082E419C086E290E0FC01808180950F
:1006C00062E00E946C02882311F083E40DC086E290
:1006D00090E0FC018081809563E00E946C02882399
:1006E00011F084E401C080E0DF91CF911F910F9160
:1006F00008950F931F93CF93DF93CDB7DEB768971D
:100700000FB6F894DEBF0FBECDBF6D837E838F839F
:10071000988729873A874B875C878D819E81AF8137
:10072000B885898B9A8BAB8BBC8B09851A852B85F9
:100730003C8569897A898B899C89A90198010E94E5
:10074000E6066D8B7E8B8F8B988F8D899E89AF8906
:10075000B88D89839A83AB83BC8389819A81AB816D
:10076000BC81892B8A2B8B2B29F489859A85AB85B3
:10077000BC8511C089859A85AB85BC858D839E8398
:10078000AF83B88789819A81AB81BC8189879A8739
:10079000AB87BC87C2CF8D879E87AF87B88B6D85AF
:1007A0007E858F85988968960FB6F894DEBF0FBE58
:1007B000CDBFDF91CF911F910F910895CF93DF931C
:1007C00000D00F92CDB7DEB789837B836A8389819E
:1007D0008A3031F48A819B81BC018DE00E94DE0366
:1007E00080EC90E0FC018081882F90E08072992756
:1007F000892BB1F386EC90E02981FC01208380E015
:1008000090E00F900F900F90DF91CF910895CF93CC
:10081000DF9300D0CDB7DEB79A8389830E9485022B
:1008200080932B0189819A81892B29F089819A8172
:10083000019731F00AC081E090E09A83898308C073
:1008400081E090E09A83898303C01A8219820000B4
:1008500089819A81892B09F466C089819A810197DF
:1008600009F062C080912B01882F90E0092E000CC6
:10087000AA0BBB0B85349105A105B10508F048C052
:100880008D5E984FFC010C94080710922C0144C017
:1008900081E080932C0140C082E080932C013CC019
:1008A00083E080932C0138C084E080932C0134C015
:1008B00085E080932C0130C086E080932C012CC011
:1008C00087E080932C0128C088E080932C0124C00D
:1008D00089E080932C0120C08AE080932C011CC009
:1008E0008BE080932C0118C08CE080932C0114C005
:1008F0008DE080932C0110C08EE080932C010CC001
:100900008FE080932C0108C08FE180932C0104C0FC
:100910008BE180932C01000085E290E020912C0176
:10092000FC01208301C0000089819A810F900F9003
:10093000DF91CF910895CF93DF9300D0CDB7DEB78D
:100940009A83898389819A81039791F189819A8118
:1009500004970CF03DC089819A81029721F1898129
:100960009A810397ACF589819A81892B29F0898135
:100970009A81019731F02CC081E090E09A838983BD
:100980002AC080912B01882321F080912C018B318A
:1009900029F481E090E09A8389831DC082E090E091
:1009A0009A83898318C083E090E09A83898313C077
:1009B00090912B0180912D01981729F483E090E00C
:1009C0009A83898308C081E090E09A83898303C079
:1009D0001A821982000089819A81039709F442C022
:1009E00089819A8104970CF03FC089819A8102978E
:1009F000A1F089819A810397BCF589819A81892B1D
:100A0000A9F189819A81019709F02EC08091120184
:100A1000909113010E941C012AC080912B018093A8
:100A20002D0180912B01882F90E00E94BE008091C3
:100A3000120190911301409770F4809112019091EE
:100A4000130101969093130180931201809112017A
:100A50009091130102C081E090E090931301809384
:100A6000120105C0000003C0000001C00000898120
:100A70009A810F900F90DF91CF910895CF93DF93DC
:100A8000CDB7DEB76B970FB6F894DEBF0FBECDBF04
:100A900081E290E02FEFDC012C9382E290E0FC01F8
:100AA000108284E290E02FEFDC012C9385E290E04D
:100AB000FC01108287E290E020EFDC012C9388E2B9
:100AC00090E02FE0FC0120838AE290E02FEFDC0130
:100AD0002C938BE290E0FC0110820E94720064E192
:100AE00071E081E00E94EE008EE291E09D878C87AC
:100AF00089E391E09F878E8782E090E09A878987DB
:100B00001B868B8580932E018AE090E0A0E0B0E008
:100B100080932F0190933001A0933101B093320163
:100B200080912F0190913001A0913101B09132015B
:100B30008093330190933401A0933501B093360133
:100B400087E094E090933801809337018B85809300
:100B500039018EE190E0A0E0B0E080933A019093FB
:100B60003B01A0933C01B0933D0180913A019091EB
:100B70003B01A0913C01B0913D0180933E019093D7
:100B80003F01A0934001B09341018BE994E0909321
:100B90004301809342018C859D85FC018181928176
:100BA000A381B48189839A83AB83BC831E821D8217
:100BB00033C08D819E81880F991F9E012F5F3F4F0B
:100BC000820F931F0B96DC018D919C91FC0181811A
:100BD0009281A381B48129813A814B815C81288BE8
:100BE000398B4A8B5B8B9C01AD01688979898A8935
:100BF0009B890E9479036C8B7D8B8E8B9F8B8C895C
:100C00009D89AE89BF8989839A83AB83BC838D819B
:100C10009E8101969E838D838D819E8129853A8553
:100C20008217930730F229813A814B815C81288FAA
:100C3000398F4A8F5B8F688D798D8A8D9B8D0E944D
:100C400064010E94920118861F82B0C08F8198852E
:100C5000880F991F9E012F5F3F4F820F931F0B96A6
:100C6000DC018D919C91FC014581568167817085E5
:100C70008F819885880F991F9E012F5F3F4F820FAC
:100C8000931F0B96DC018D919C91FC0181819281D7
:100C9000A381B481481759076A077B0709F047C049
:100CA0008F819885880F991F9E012F5F3F4F820F7C
:100CB000931F0B96DC018D919C91FC01218532855F
:100CC0008F819885880F991FAE014F5F5F4F840F0A
:100CD000951F0B96DC018D919C91FC018081082E63
:100CE000000C990BF9010995AC018F819885880F4B
:100CF000991F9E012F5F3F4F820F931F0B96DC01C0
:100D00008D919C91242FFC0120838F819885880FE1
:100D1000991F9E012F5F3F4F820F931F0B96DC019F
:100D20008D919C91FC0115821682178210868F810D
:100D30009885880F991F9E012F5F3F4F820F931F49
:100D40000B96DC018D919C91FC0145815681678158
:100D500070858F819885880F991F9E012F5F3F4F67
:100D6000820F931F0B96DC018D919C91FC01818178
:100D70009281A381B4812F813885220F331FFE0118
:100D800031962E0F3F1F255F3F4FF90120813181A2
:100D9000840F951FA61FB71FF90185839683A7832C
:100DA000B0878F819885019698878F832F813885AA
:100DB00089859A852817390708F448CF0000809163
:100DC00026018823E1F3109226013DCFA1E21A2EDD
:100DD000AA1BBB1BFD010DC0AA1FBB1FEE1FFF1FDF
:100DE000A217B307E407F50720F0A21BB30BE40B2F
:100DF000F50B661F771F881F991F1A9469F7609576
:100E00007095809590959B01AC01BD01CF0108952F
:100E1000EE0FFF1F0024001C0BBE0790F691E02D83
:100E20000994F894FFCF8404880488048804880413
:100E30008804880488048804880488048804880452
:100E40008804880488048804880488048804880442
:100E50008804880488048804880488048804880432
:100E6000880488048804880488048804800488042A
:100E7000880488048804880488047C04880488041E
:100E8000880488048804450448044C04500454042D
:100E900058045C04600464046804880488048804BA
:100EA00088048804880488046C047004740478043A
:100EB000010000000000000200000000DE0300004E
:100EC00000000100436F6E67726174756C61746934
:060ED0006F6E73210000AB
:00000001FF
